{
  "_format": "hh-sol-artifact-1",
  "contractName": "Coordinates",
  "sourceName": "contracts/Coordinates.sol",
  "abi": [
    {
      "inputs": [
        {
          "internalType": "address",
          "name": "metadata_",
          "type": "address"
        },
        {
          "internalType": "address",
          "name": "splitter_",
          "type": "address"
        }
      ],
      "stateMutability": "nonpayable",
      "type": "constructor"
    },
    {
      "inputs": [],
      "name": "ApprovalCallerNotOwnerNorApproved",
      "type": "error"
    },
    {
      "inputs": [],
      "name": "ApprovalQueryForNonexistentToken",
      "type": "error"
    },
    {
      "inputs": [],
      "name": "BalanceQueryForZeroAddress",
      "type": "error"
    },
    {
      "inputs": [],
      "name": "InvalidQueryRange",
      "type": "error"
    },
    {
      "inputs": [],
      "name": "MintERC2309QuantityExceedsLimit",
      "type": "error"
    },
    {
      "inputs": [],
      "name": "MintToZeroAddress",
      "type": "error"
    },
    {
      "inputs": [],
      "name": "MintZeroQuantity",
      "type": "error"
    },
    {
      "inputs": [],
      "name": "OwnerQueryForNonexistentToken",
      "type": "error"
    },
    {
      "inputs": [],
      "name": "OwnershipNotInitializedForExtraData",
      "type": "error"
    },
    {
      "inputs": [],
      "name": "TransferCallerNotOwnerNorApproved",
      "type": "error"
    },
    {
      "inputs": [],
      "name": "TransferFromIncorrectOwner",
      "type": "error"
    },
    {
      "inputs": [],
      "name": "TransferToNonERC721ReceiverImplementer",
      "type": "error"
    },
    {
      "inputs": [],
      "name": "TransferToZeroAddress",
      "type": "error"
    },
    {
      "inputs": [],
      "name": "URIQueryForNonexistentToken",
      "type": "error"
    },
    {
      "anonymous": false,
      "inputs": [
        {
          "indexed": true,
          "internalType": "address",
          "name": "owner",
          "type": "address"
        },
        {
          "indexed": true,
          "internalType": "address",
          "name": "approved",
          "type": "address"
        },
        {
          "indexed": true,
          "internalType": "uint256",
          "name": "tokenId",
          "type": "uint256"
        }
      ],
      "name": "Approval",
      "type": "event"
    },
    {
      "anonymous": false,
      "inputs": [
        {
          "indexed": true,
          "internalType": "address",
          "name": "owner",
          "type": "address"
        },
        {
          "indexed": true,
          "internalType": "address",
          "name": "operator",
          "type": "address"
        },
        {
          "indexed": false,
          "internalType": "bool",
          "name": "approved",
          "type": "bool"
        }
      ],
      "name": "ApprovalForAll",
      "type": "event"
    },
    {
      "anonymous": false,
      "inputs": [
        {
          "indexed": true,
          "internalType": "uint256",
          "name": "fromTokenId",
          "type": "uint256"
        },
        {
          "indexed": false,
          "internalType": "uint256",
          "name": "toTokenId",
          "type": "uint256"
        },
        {
          "indexed": true,
          "internalType": "address",
          "name": "from",
          "type": "address"
        },
        {
          "indexed": true,
          "internalType": "address",
          "name": "to",
          "type": "address"
        }
      ],
      "name": "ConsecutiveTransfer",
      "type": "event"
    },
    {
      "anonymous": false,
      "inputs": [
        {
          "indexed": true,
          "internalType": "address",
          "name": "to",
          "type": "address"
        },
        {
          "indexed": true,
          "internalType": "bool",
          "name": "success",
          "type": "bool"
        },
        {
          "indexed": false,
          "internalType": "bytes",
          "name": "returnData",
          "type": "bytes"
        },
        {
          "indexed": false,
          "internalType": "uint256",
          "name": "amount",
          "type": "uint256"
        }
      ],
      "name": "EthMoved",
      "type": "event"
    },
    {
      "anonymous": false,
      "inputs": [
        {
          "indexed": true,
          "internalType": "address",
          "name": "previousOwner",
          "type": "address"
        },
        {
          "indexed": true,
          "internalType": "address",
          "name": "newOwner",
          "type": "address"
        }
      ],
      "name": "OwnershipTransferred",
      "type": "event"
    },
    {
      "anonymous": false,
      "inputs": [
        {
          "indexed": true,
          "internalType": "address",
          "name": "from",
          "type": "address"
        },
        {
          "indexed": true,
          "internalType": "address",
          "name": "to",
          "type": "address"
        },
        {
          "indexed": true,
          "internalType": "uint256",
          "name": "tokenId",
          "type": "uint256"
        }
      ],
      "name": "Transfer",
      "type": "event"
    },
    {
      "stateMutability": "payable",
      "type": "fallback"
    },
    {
      "inputs": [],
      "name": "MAX_PER_PREMINT",
      "outputs": [
        {
          "internalType": "uint256",
          "name": "",
          "type": "uint256"
        }
      ],
      "stateMutability": "view",
      "type": "function"
    },
    {
      "inputs": [],
      "name": "MAX_SUPPLY",
      "outputs": [
        {
          "internalType": "uint256",
          "name": "",
          "type": "uint256"
        }
      ],
      "stateMutability": "view",
      "type": "function"
    },
    {
      "inputs": [
        {
          "internalType": "address",
          "name": "recipient",
          "type": "address"
        },
        {
          "internalType": "uint256",
          "name": "quantity",
          "type": "uint256"
        }
      ],
      "name": "adminMint",
      "outputs": [],
      "stateMutability": "payable",
      "type": "function"
    },
    {
      "inputs": [
        {
          "internalType": "address",
          "name": "_wallet",
          "type": "address"
        },
        {
          "internalType": "bytes32[]",
          "name": "_proof",
          "type": "bytes32[]"
        }
      ],
      "name": "allowListed",
      "outputs": [
        {
          "internalType": "bool",
          "name": "",
          "type": "bool"
        }
      ],
      "stateMutability": "view",
      "type": "function"
    },
    {
      "inputs": [
        {
          "internalType": "address",
          "name": "to",
          "type": "address"
        },
        {
          "internalType": "uint256",
          "name": "tokenId",
          "type": "uint256"
        }
      ],
      "name": "approve",
      "outputs": [],
      "stateMutability": "payable",
      "type": "function"
    },
    {
      "inputs": [
        {
          "internalType": "address",
          "name": "owner",
          "type": "address"
        }
      ],
      "name": "balanceOf",
      "outputs": [
        {
          "internalType": "uint256",
          "name": "",
          "type": "uint256"
        }
      ],
      "stateMutability": "view",
      "type": "function"
    },
    {
      "inputs": [
        {
          "internalType": "uint256",
          "name": "tokenId",
          "type": "uint256"
        }
      ],
      "name": "explicitOwnershipOf",
      "outputs": [
        {
          "components": [
            {
              "internalType": "address",
              "name": "addr",
              "type": "address"
            },
            {
              "internalType": "uint64",
              "name": "startTimestamp",
              "type": "uint64"
            },
            {
              "internalType": "bool",
              "name": "burned",
              "type": "bool"
            },
            {
              "internalType": "uint24",
              "name": "extraData",
              "type": "uint24"
            }
          ],
          "internalType": "struct IERC721A.TokenOwnership",
          "name": "",
          "type": "tuple"
        }
      ],
      "stateMutability": "view",
      "type": "function"
    },
    {
      "inputs": [
        {
          "internalType": "uint256[]",
          "name": "tokenIds",
          "type": "uint256[]"
        }
      ],
      "name": "explicitOwnershipsOf",
      "outputs": [
        {
          "components": [
            {
              "internalType": "address",
              "name": "addr",
              "type": "address"
            },
            {
              "internalType": "uint64",
              "name": "startTimestamp",
              "type": "uint64"
            },
            {
              "internalType": "bool",
              "name": "burned",
              "type": "bool"
            },
            {
              "internalType": "uint24",
              "name": "extraData",
              "type": "uint24"
            }
          ],
          "internalType": "struct IERC721A.TokenOwnership[]",
          "name": "",
          "type": "tuple[]"
        }
      ],
      "stateMutability": "view",
      "type": "function"
    },
    {
      "inputs": [
        {
          "internalType": "uint256",
          "name": "tokenId",
          "type": "uint256"
        }
      ],
      "name": "getApproved",
      "outputs": [
        {
          "internalType": "address",
          "name": "",
          "type": "address"
        }
      ],
      "stateMutability": "view",
      "type": "function"
    },
    {
      "inputs": [
        {
          "internalType": "address",
          "name": "owner",
          "type": "address"
        },
        {
          "internalType": "address",
          "name": "operator",
          "type": "address"
        }
      ],
      "name": "isApprovedForAll",
      "outputs": [
        {
          "internalType": "bool",
          "name": "",
          "type": "bool"
        }
      ],
      "stateMutability": "view",
      "type": "function"
    },
    {
      "inputs": [],
      "name": "merkleRoot",
      "outputs": [
        {
          "internalType": "bytes32",
          "name": "",
          "type": "bytes32"
        }
      ],
      "stateMutability": "view",
      "type": "function"
    },
    {
      "inputs": [],
      "name": "metadata",
      "outputs": [
        {
          "internalType": "address",
          "name": "",
          "type": "address"
        }
      ],
      "stateMutability": "view",
      "type": "function"
    },
    {
      "inputs": [],
      "name": "mint",
      "outputs": [],
      "stateMutability": "payable",
      "type": "function"
    },
    {
      "inputs": [
        {
          "internalType": "address",
          "name": "recipient",
          "type": "address"
        },
        {
          "internalType": "uint256",
          "name": "quantity",
          "type": "uint256"
        }
      ],
      "name": "mint",
      "outputs": [],
      "stateMutability": "payable",
      "type": "function"
    },
    {
      "inputs": [
        {
          "internalType": "address",
          "name": "recipient",
          "type": "address"
        }
      ],
      "name": "mint",
      "outputs": [],
      "stateMutability": "payable",
      "type": "function"
    },
    {
      "inputs": [
        {
          "internalType": "uint256",
          "name": "quantity",
          "type": "uint256"
        }
      ],
      "name": "mint",
      "outputs": [],
      "stateMutability": "payable",
      "type": "function"
    },
    {
      "inputs": [
        {
          "internalType": "uint256",
          "name": "quantity",
          "type": "uint256"
        },
        {
          "internalType": "bytes32[]",
          "name": "_proof",
          "type": "bytes32[]"
        }
      ],
      "name": "mintAllowList",
      "outputs": [],
      "stateMutability": "payable",
      "type": "function"
    },
    {
      "inputs": [],
      "name": "name",
      "outputs": [
        {
          "internalType": "string",
          "name": "",
          "type": "string"
        }
      ],
      "stateMutability": "view",
      "type": "function"
    },
    {
      "inputs": [],
      "name": "owner",
      "outputs": [
        {
          "internalType": "address",
          "name": "",
          "type": "address"
        }
      ],
      "stateMutability": "view",
      "type": "function"
    },
    {
      "inputs": [
        {
          "internalType": "uint256",
          "name": "tokenId",
          "type": "uint256"
        }
      ],
      "name": "ownerOf",
      "outputs": [
        {
          "internalType": "address",
          "name": "",
          "type": "address"
        }
      ],
      "stateMutability": "view",
      "type": "function"
    },
    {
      "inputs": [],
      "name": "paused",
      "outputs": [
        {
          "internalType": "bool",
          "name": "",
          "type": "bool"
        }
      ],
      "stateMutability": "view",
      "type": "function"
    },
    {
      "inputs": [],
      "name": "premint",
      "outputs": [
        {
          "internalType": "uint256",
          "name": "",
          "type": "uint256"
        }
      ],
      "stateMutability": "view",
      "type": "function"
    },
    {
      "inputs": [
        {
          "internalType": "address",
          "name": "",
          "type": "address"
        }
      ],
      "name": "preminted",
      "outputs": [
        {
          "internalType": "uint256",
          "name": "",
          "type": "uint256"
        }
      ],
      "stateMutability": "view",
      "type": "function"
    },
    {
      "inputs": [],
      "name": "price",
      "outputs": [
        {
          "internalType": "uint256",
          "name": "",
          "type": "uint256"
        }
      ],
      "stateMutability": "view",
      "type": "function"
    },
    {
      "inputs": [
        {
          "internalType": "address payable",
          "name": "_to",
          "type": "address"
        }
      ],
      "name": "recoverUnsuccessfulMintPayment",
      "outputs": [],
      "stateMutability": "nonpayable",
      "type": "function"
    },
    {
      "inputs": [],
      "name": "renounceOwnership",
      "outputs": [],
      "stateMutability": "nonpayable",
      "type": "function"
    },
    {
      "inputs": [
        {
          "internalType": "uint256",
          "name": "tokenId",
          "type": "uint256"
        },
        {
          "internalType": "uint256",
          "name": "salePrice",
          "type": "uint256"
        }
      ],
      "name": "royaltyInfo",
      "outputs": [
        {
          "internalType": "address",
          "name": "",
          "type": "address"
        },
        {
          "internalType": "uint256",
          "name": "",
          "type": "uint256"
        }
      ],
      "stateMutability": "view",
      "type": "function"
    },
    {
      "inputs": [
        {
          "internalType": "address",
          "name": "from",
          "type": "address"
        },
        {
          "internalType": "address",
          "name": "to",
          "type": "address"
        },
        {
          "internalType": "uint256",
          "name": "tokenId",
          "type": "uint256"
        }
      ],
      "name": "safeTransferFrom",
      "outputs": [],
      "stateMutability": "payable",
      "type": "function"
    },
    {
      "inputs": [
        {
          "internalType": "address",
          "name": "from",
          "type": "address"
        },
        {
          "internalType": "address",
          "name": "to",
          "type": "address"
        },
        {
          "internalType": "uint256",
          "name": "tokenId",
          "type": "uint256"
        },
        {
          "internalType": "bytes",
          "name": "_data",
          "type": "bytes"
        }
      ],
      "name": "safeTransferFrom",
      "outputs": [],
      "stateMutability": "payable",
      "type": "function"
    },
    {
      "inputs": [
        {
          "internalType": "address",
          "name": "operator",
          "type": "address"
        },
        {
          "internalType": "bool",
          "name": "approved",
          "type": "bool"
        }
      ],
      "name": "setApprovalForAll",
      "outputs": [],
      "stateMutability": "nonpayable",
      "type": "function"
    },
    {
      "inputs": [
        {
          "internalType": "bytes32",
          "name": "merkleRoot_",
          "type": "bytes32"
        }
      ],
      "name": "setMerkleRoot",
      "outputs": [],
      "stateMutability": "nonpayable",
      "type": "function"
    },
    {
      "inputs": [
        {
          "internalType": "address",
          "name": "metadata_",
          "type": "address"
        }
      ],
      "name": "setMetadata",
      "outputs": [],
      "stateMutability": "nonpayable",
      "type": "function"
    },
    {
      "inputs": [
        {
          "internalType": "bool",
          "name": "paused_",
          "type": "bool"
        }
      ],
      "name": "setPause",
      "outputs": [],
      "stateMutability": "nonpayable",
      "type": "function"
    },
    {
      "inputs": [
        {
          "internalType": "uint256",
          "name": "premint_",
          "type": "uint256"
        }
      ],
      "name": "setPremint",
      "outputs": [],
      "stateMutability": "nonpayable",
      "type": "function"
    },
    {
      "inputs": [
        {
          "internalType": "uint256",
          "name": "price_",
          "type": "uint256"
        }
      ],
      "name": "setPrice",
      "outputs": [],
      "stateMutability": "nonpayable",
      "type": "function"
    },
    {
      "inputs": [
        {
          "internalType": "address",
          "name": "royaltyReceiver",
          "type": "address"
        },
        {
          "internalType": "uint96",
          "name": "royaltyPercentage",
          "type": "uint96"
        }
      ],
      "name": "setRoyaltyPercentage",
      "outputs": [],
      "stateMutability": "nonpayable",
      "type": "function"
    },
    {
      "inputs": [
        {
          "internalType": "address",
          "name": "splitter_",
          "type": "address"
        }
      ],
      "name": "setSplitter",
      "outputs": [],
      "stateMutability": "nonpayable",
      "type": "function"
    },
    {
      "inputs": [
        {
          "internalType": "uint256",
          "name": "startdate_",
          "type": "uint256"
        }
      ],
      "name": "setStartdate",
      "outputs": [],
      "stateMutability": "nonpayable",
      "type": "function"
    },
    {
      "inputs": [],
      "name": "splitter",
      "outputs": [
        {
          "internalType": "address",
          "name": "",
          "type": "address"
        }
      ],
      "stateMutability": "view",
      "type": "function"
    },
    {
      "inputs": [],
      "name": "startdate",
      "outputs": [
        {
          "internalType": "uint256",
          "name": "",
          "type": "uint256"
        }
      ],
      "stateMutability": "view",
      "type": "function"
    },
    {
      "inputs": [
        {
          "internalType": "bytes4",
          "name": "interfaceId",
          "type": "bytes4"
        }
      ],
      "name": "supportsInterface",
      "outputs": [
        {
          "internalType": "bool",
          "name": "",
          "type": "bool"
        }
      ],
      "stateMutability": "view",
      "type": "function"
    },
    {
      "inputs": [],
      "name": "symbol",
      "outputs": [
        {
          "internalType": "string",
          "name": "",
          "type": "string"
        }
      ],
      "stateMutability": "view",
      "type": "function"
    },
    {
      "inputs": [
        {
          "internalType": "uint256",
          "name": "id",
          "type": "uint256"
        }
      ],
      "name": "tokenURI",
      "outputs": [
        {
          "internalType": "string",
          "name": "",
          "type": "string"
        }
      ],
      "stateMutability": "view",
      "type": "function"
    },
    {
      "inputs": [
        {
          "internalType": "address",
          "name": "owner",
          "type": "address"
        }
      ],
      "name": "tokensOfOwner",
      "outputs": [
        {
          "internalType": "uint256[]",
          "name": "",
          "type": "uint256[]"
        }
      ],
      "stateMutability": "view",
      "type": "function"
    },
    {
      "inputs": [
        {
          "internalType": "address",
          "name": "owner",
          "type": "address"
        },
        {
          "internalType": "uint256",
          "name": "start",
          "type": "uint256"
        },
        {
          "internalType": "uint256",
          "name": "stop",
          "type": "uint256"
        }
      ],
      "name": "tokensOfOwnerIn",
      "outputs": [
        {
          "internalType": "uint256[]",
          "name": "",
          "type": "uint256[]"
        }
      ],
      "stateMutability": "view",
      "type": "function"
    },
    {
      "inputs": [],
      "name": "totalSupply",
      "outputs": [
        {
          "internalType": "uint256",
          "name": "",
          "type": "uint256"
        }
      ],
      "stateMutability": "view",
      "type": "function"
    },
    {
      "inputs": [
        {
          "internalType": "address",
          "name": "from",
          "type": "address"
        },
        {
          "internalType": "address",
          "name": "to",
          "type": "address"
        },
        {
          "internalType": "uint256",
          "name": "tokenId",
          "type": "uint256"
        }
      ],
      "name": "transferFrom",
      "outputs": [],
      "stateMutability": "payable",
      "type": "function"
    },
    {
      "inputs": [
        {
          "internalType": "address",
          "name": "newOwner",
          "type": "address"
        }
      ],
      "name": "transferOwnership",
      "outputs": [],
      "stateMutability": "nonpayable",
      "type": "function"
    },
    {
      "stateMutability": "payable",
      "type": "receive"
    }
  ],
  "bytecode": "0x6080604052600c805460ff19169055665543df729c0000600d554260108190556011557f7eb11619d1dd456844424b6c6f1be20ba3552298bb97a978724278ddebbd44746012553480156200005357600080fd5b5060405162002c8238038062002c828339810160408190526200007691620002a6565b6040518060400160405280600b81526020016a436f6f7264696e6174657360a81b8152506040518060400160405280600381526020016210d49160ea1b8152508160029081620000c7919062000383565b506003620000d6828262000383565b5050600160005550620000e93362000132565b6001600b55600e80546001600160a01b038085166001600160a01b031992831617909255600f805492841692909116821790556200012a906102ee62000184565b50506200044f565b600880546001600160a01b038381166001600160a01b0319831681179093556040519116919082907f8be0079c531659141344cd1fd0a4f28419497f9722a3daafe3b4186f6b6457e090600090a35050565b6127106001600160601b0382161115620001f85760405162461bcd60e51b815260206004820152602a60248201527f455243323938313a20726f79616c7479206665652077696c6c206578636565646044820152692073616c65507269636560b01b60648201526084015b60405180910390fd5b6001600160a01b038216620002505760405162461bcd60e51b815260206004820152601960248201527f455243323938313a20696e76616c6964207265636569766572000000000000006044820152606401620001ef565b604080518082019091526001600160a01b039092168083526001600160601b039091166020909201829052600160a01b90910217600955565b80516001600160a01b0381168114620002a157600080fd5b919050565b60008060408385031215620002ba57600080fd5b620002c58362000289565b9150620002d56020840162000289565b90509250929050565b634e487b7160e01b600052604160045260246000fd5b600181811c908216806200030957607f821691505b6020821081036200032a57634e487b7160e01b600052602260045260246000fd5b50919050565b601f8211156200037e57600081815260208120601f850160051c81016020861015620003595750805b601f850160051c820191505b818110156200037a5782815560010162000365565b5050505b505050565b81516001600160401b038111156200039f576200039f620002de565b620003b781620003b08454620002f4565b8462000330565b602080601f831160018114620003ef5760008415620003d65750858301515b600019600386901b1c1916600185901b1785556200037a565b600085815260208120601f198616915b828110156200042057888601518255948401946001909101908401620003ff565b50858210156200043f5787850151600019600388901b60f8161c191681555b5050505050600190811b01905550565b612823806200045f6000396000f3fe6080604052600436106102975760003560e01c80637cb647591161015a578063c09fd8ef116100c1578063d410f5691161007a578063d410f569146107a0578063e58306f9146107c0578063e985e9c5146107d3578063f2fde38b1461081c578063f3cb83851461083c578063fa05a6571461085c576102a6565b8063c09fd8ef146106d0578063c23dc68f146106f0578063c87b56dd1461071d578063c93fc83d1461073d578063ccd682bc1461075d578063cde9f2ea1461078a576102a6565b806399a2557a1161011357806399a2557a14610634578063a035b1fe14610654578063a0712d681461066a578063a22cb4651461067d578063b88d4fde1461069d578063bedb86fb146106b0576102a6565b80637cb6475914610574578063818779ef146105945780638462151c146105b45780638da5cb5b146105e157806391b7f5ed146105ff57806395d89b411461061f576102a6565b80633cd8045e116101fe5780635c975abb116101b75780635c975abb146104d25780636352211e146104ec5780636a6278421461050c57806370a082311461051f578063715018a61461053f57806375fb322514610554576102a6565b80633cd8045e1461043457806340c10f1914610454578063410871dd1461046757806342842e0e1461047c57806348a1e66b1461048f5780635bbb2177146104a5576102a6565b806323b872dd1161025057806323b872dd14610377578063247155ff1461038a5780632a55205a146103aa5780632eb4a7ab146103e957806332cb6b0c146103ff578063392f37e914610414576102a6565b806301ffc9a7146102ae57806306fdde03146102e3578063081812fc14610305578063095ea7b31461033d5780631249c58b146102a657806318160ddd14610350576102a6565b366102a6576102a461086f565b005b6102a461086f565b3480156102ba57600080fd5b506102ce6102c9366004612093565b61087c565b60405190151581526020015b60405180910390f35b3480156102ef57600080fd5b506102f86108dd565b6040516102da9190612108565b34801561031157600080fd5b5061032561032036600461211b565b61096f565b6040516001600160a01b0390911681526020016102da565b6102a461034b366004612149565b6109b3565b34801561035c57600080fd5b5060015460005403600019015b6040519081526020016102da565b6102a4610385366004612175565b610a53565b34801561039657600080fd5b506102ce6103a53660046121fa565b610beb565b3480156103b657600080fd5b506103ca6103c536600461224e565b610c6d565b604080516001600160a01b0390931683526020830191909152016102da565b3480156103f557600080fd5b5061036960125481565b34801561040b57600080fd5b50610369608b81565b34801561042057600080fd5b50600e54610325906001600160a01b031681565b34801561044057600080fd5b50600f54610325906001600160a01b031681565b6102a4610462366004612149565b610d1b565b34801561047357600080fd5b50610369600281565b6102a461048a366004612175565b610d78565b34801561049b57600080fd5b5061036960115481565b3480156104b157600080fd5b506104c56104c0366004612270565b610d98565b6040516102da91906122ed565b3480156104de57600080fd5b50600c546102ce9060ff1681565b3480156104f857600080fd5b5061032561050736600461211b565b610e63565b6102a461051a36600461232f565b610e6e565b34801561052b57600080fd5b5061036961053a36600461232f565b610e7c565b34801561054b57600080fd5b506102a4610eca565b34801561056057600080fd5b506102a461056f36600461211b565b610edc565b34801561058057600080fd5b506102a461058f36600461211b565b610ee9565b3480156105a057600080fd5b506102a46105af36600461234c565b610ef6565b3480156105c057600080fd5b506105d46105cf36600461232f565b610f08565b6040516102da9190612391565b3480156105ed57600080fd5b506008546001600160a01b0316610325565b34801561060b57600080fd5b506102a461061a36600461211b565b611010565b34801561062b57600080fd5b506102f861101d565b34801561064057600080fd5b506105d461064f3660046123c9565b61102c565b34801561066057600080fd5b50610369600d5481565b6102a461067836600461211b565b6111b1565b34801561068957600080fd5b506102a4610698366004612413565b6111bb565b6102a46106ab3660046124b5565b611227565b3480156106bc57600080fd5b506102a46106cb366004612563565b611271565b3480156106dc57600080fd5b506102a46106eb36600461232f565b61128c565b3480156106fc57600080fd5b5061071061070b36600461211b565b611327565b6040516102da919061257e565b34801561072957600080fd5b506102f861073836600461211b565b6113af565b34801561074957600080fd5b506102a461075836600461232f565b611421565b34801561076957600080fd5b5061036961077836600461232f565b60136020526000908152604090205481565b34801561079657600080fd5b5061036960105481565b3480156107ac57600080fd5b506102a46107bb36600461211b565b611493565b6102a46107ce366004612149565b6114a0565b3480156107df57600080fd5b506102ce6107ee36600461258c565b6001600160a01b03918216600090815260076020908152604080832093909416825291909152205460ff1690565b34801561082857600080fd5b506102a461083736600461232f565b61154a565b34801561084857600080fd5b506102a461085736600461232f565b6115c0565b6102a461086a3660046125ba565b611632565b61087a336001610d1b565b565b60006001600160e01b031982166380ac58cd60e01b14806108ad57506001600160e01b03198216635b5e139f60e01b145b806108c857506001600160e01b0319821663152a902d60e11b145b806108d757506108d78261177b565b92915050565b6060600280546108ec906125ec565b80601f0160208091040260200160405190810160405280929190818152602001828054610918906125ec565b80156109655780601f1061093a57610100808354040283529160200191610965565b820191906000526020600020905b81548152906001019060200180831161094857829003601f168201915b5050505050905090565b600061097a826117b0565b610997576040516333d1c03960e21b815260040160405180910390fd5b506000908152600660205260409020546001600160a01b031690565b60006109be82610e63565b9050336001600160a01b038216146109f7576109da81336107ee565b6109f7576040516367d9dca160e11b815260040160405180910390fd5b60008281526006602052604080822080546001600160a01b0319166001600160a01b0387811691821790925591518593918516917f8c5be1e5ebec7d5bd14f71427d1e84f3dd0314c0f7b2291e5b200ac8c7c3b92591a4505050565b6000610a5e826117e5565b9050836001600160a01b0316816001600160a01b031614610a915760405162a1148160e81b815260040160405180910390fd5b60008281526006602052604090208054338082146001600160a01b03881690911417610ade57610ac186336107ee565b610ade57604051632ce44b5f60e11b815260040160405180910390fd5b6001600160a01b038516610b0557604051633a954ecd60e21b815260040160405180910390fd5b8015610b1057600082555b6001600160a01b038681166000908152600560205260408082208054600019019055918716808252919020805460010190554260a01b17600160e11b17600085815260046020526040812091909155600160e11b84169003610ba257600184016000818152600460205260408120549003610ba0576000548114610ba05760008181526004602052604090208490555b505b83856001600160a01b0316876001600160a01b03167fddf252ad1be2c89b69c2b068fc378daa952ba7f163c4a11628f55a4df523b3ef60405160405180910390a4505050505050565b6000610c63838380806020026020016040519081016040528093929190818152602001838360200280828437600092019190915250506012546040516bffffffffffffffffffffffff1960608b901b166020820152909250603401905060405160208183030381529060405280519060200120611854565b90505b9392505050565b6000828152600a602090815260408083208151808301909252546001600160a01b038116808352600160a01b9091046001600160601b0316928201929092528291610ce25750604080518082019091526009546001600160a01b0381168252600160a01b90046001600160601b031660208201525b602081015160009061271090610d01906001600160601b03168761263c565b610d0b919061265b565b91519350909150505b9250929050565b600c5460ff16158015610d3057506010544210155b610d6a5760405162461bcd60e51b815260206004820152600660248201526514105554d15160d21b60448201526064015b60405180910390fd5b610d74828261186a565b5050565b610d9383838360405180602001604052806000815250611227565b505050565b6060816000816001600160401b03811115610db557610db5612448565b604051908082528060200260200182016040528015610e0757816020015b604080516080810182526000808252602080830182905292820181905260608201528252600019909201910181610dd35790505b50905060005b828114610e5a57610e35868683818110610e2957610e2961267d565b90506020020135611327565b828281518110610e4757610e4761267d565b6020908102919091010152600101610e0d565b50949350505050565b60006108d7826117e5565b610e79816001610d1b565b50565b60006001600160a01b038216610ea5576040516323d3ad8160e21b815260040160405180910390fd5b506001600160a01b03166000908152600560205260409020546001600160401b031690565b610ed2611ada565b61087a6000611b34565b610ee4611ada565b601155565b610ef1611ada565b601255565b610efe611ada565b610d748282611b86565b60606000806000610f1885610e7c565b90506000816001600160401b03811115610f3457610f34612448565b604051908082528060200260200182016040528015610f5d578160200160208202803683370190505b509050610f8a60408051608081018252600080825260208201819052918101829052606081019190915290565b60015b83861461100457610f9d81611c83565b91508160400151610ffc5781516001600160a01b031615610fbd57815194505b876001600160a01b0316856001600160a01b031603610ffc5780838780600101985081518110610fef57610fef61267d565b6020026020010181815250505b600101610f8d565b50909695505050505050565b611018611ada565b600d55565b6060600380546108ec906125ec565b606081831061104e57604051631960ccad60e11b815260040160405180910390fd5b60008061105a60005490565b9050600185101561106a57600194505b80841115611076578093505b600061108187610e7c565b9050848610156110a0578585038181101561109a578091505b506110a4565b5060005b6000816001600160401b038111156110be576110be612448565b6040519080825280602002602001820160405280156110e7578160200160208202803683370190505b509050816000036110fd579350610c6692505050565b600061110888611327565b905060008160400151611119575080515b885b88811415801561112b5750848714155b156111a05761113981611c83565b925082604001516111985782516001600160a01b03161561115957825191505b8a6001600160a01b0316826001600160a01b031603611198578084888060010199508151811061118b5761118b61267d565b6020026020010181815250505b60010161111b565b505050928352509095945050505050565b610e793382610d1b565b3360008181526007602090815260408083206001600160a01b03871680855290835292819020805460ff191686151590811790915590519081529192917f17307eab39ab6107e8899845ad3d59bd9653f200f220920489ca2b5937696c31910160405180910390a35050565b611232848484610a53565b6001600160a01b0383163b1561126b5761124e84848484611cbf565b61126b576040516368d2bf6b60e11b815260040160405180910390fd5b50505050565b611279611ada565b600c805460ff1916911515919091179055565b611294611ada565b604051479060009081906001600160a01b0385169084908381818185875af1925050503d80600081146112e3576040519150601f19603f3d011682016040523d82523d6000602084013e6112e8565b606091505b5091509150811515846001600160a01b03166000805160206127ce8339815191528386604051611319929190612693565b60405180910390a350505050565b604080516080810182526000808252602082018190529181018290526060810191909152604080516080810182526000808252602082018190529181018290526060810191909152600183108061138057506000548310155b1561138b5792915050565b61139483611c83565b90508060400151156113a65792915050565b610c6683611daa565b600e5460405163295d33a960e21b8152600481018390526060916001600160a01b03169063a574cea490602401600060405180830381865afa1580156113f9573d6000803e3d6000fd5b505050506040513d6000823e601f3d908101601f191682016040526108d791908101906126b5565b611429611ada565b6001600160a01b0381166114715760405162461bcd60e51b815260206004820152600f60248201526e4e4f205a45524f204144445245535360881b6044820152606401610d61565b600f80546001600160a01b0319166001600160a01b0392909216919091179055565b61149b611ada565b601055565b6114a8611ada565b600f5460405160009182916001600160a01b039091169034908381818185875af1925050503d80600081146114f9576040519150601f19603f3d011682016040523d82523d6000602084013e6114fe565b606091505b50600f54604051929450909250831515916001600160a01b03909116906000805160206127ce833981519152906115389085903490612693565b60405180910390a361126b8484611ddf565b611552611ada565b6001600160a01b0381166115b75760405162461bcd60e51b815260206004820152602660248201527f4f776e61626c653a206e6577206f776e657220697320746865207a65726f206160448201526564647265737360d01b6064820152608401610d61565b610e7981611b34565b6115c8611ada565b6001600160a01b0381166116105760405162461bcd60e51b815260206004820152600f60248201526e4e4f205a45524f204144445245535360881b6044820152606401610d61565b600e80546001600160a01b0319166001600160a01b0392909216919091179055565b61163d338383610beb565b6116895760405162461bcd60e51b815260206004820152601c60248201527f596f7520617265206e6f74206f6e2074686520616c6c6f776c697374000000006044820152606401610d61565b600c5460ff1615801561169e57506011544210155b6116e05760405162461bcd60e51b8152602060048201526013602482015272141c995b5a5b9d081b9bdd081cdd185c9d1959606a1b6044820152606401610d61565b336000908152601360205260409020546002906116fe90859061272b565b111561174c5760405162461bcd60e51b815260206004820152601f60248201527f596f752063616e206f6e6c79206d696e74203220706572207072656d696e74006044820152606401610d61565b336000908152601360205260408120805485929061176b90849061272b565b90915550610d939050338461186a565b60006001600160e01b0319821663152a902d60e11b14806108d757506301ffc9a760e01b6001600160e01b03198316146108d7565b6000816001111580156117c4575060005482105b80156108d7575050600090815260046020526040902054600160e01b161590565b6000818060011161183b5760005481101561183b5760008181526004602052604081205490600160e01b82169003611839575b80600003610c66575060001901600081815260046020526040902054611818565b505b604051636f96cda160e11b815260040160405180910390fd5b6000826118618584611df9565b14949350505050565b611872611e46565b80600d54611880919061263c565b3410156118bd5760405162461bcd60e51b815260206004820152600b60248201526a57524f4e4720505249434560a81b6044820152606401610d61565b600581111561190e5760405162461bcd60e51b815260206004820181905260248201527f43414e2754204d494e54204d4f5245205448414e203520415420412054494d456044820152606401610d61565b600154600054608b9183910360001901611928919061272b565b111561198b57600154600054036000190161194490608b612743565b90508060000361198b5760405162461bcd60e51b81526020600482015260126024820152711350560814d5541413164814915050d2115160721b6044820152606401610d61565b6000600d548261199b919061263c565b600f5460405191925060009182916001600160a01b03169084908381818185875af1925050503d80600081146119ed576040519150601f19603f3d011682016040523d82523d6000602084013e6119f2565b606091505b50600f54604051929450909250831515916001600160a01b03909116906000805160206127ce83398151915290611a2c9085908890612693565b60405180910390a3611a3e8585611ddf565b34831015611acd5733611a518434612743565b604051600081818185875af1925050503d8060008114611a8d576040519150601f19603f3d011682016040523d82523d6000602084013e611a92565b606091505b509092509050811515336000805160206127ce83398151915283611ab68734612743565b604051611ac4929190612693565b60405180910390a35b505050610d746001600b55565b6008546001600160a01b0316331461087a5760405162461bcd60e51b815260206004820181905260248201527f4f776e61626c653a2063616c6c6572206973206e6f7420746865206f776e65726044820152606401610d61565b600880546001600160a01b038381166001600160a01b0319831681179093556040519116919082907f8be0079c531659141344cd1fd0a4f28419497f9722a3daafe3b4186f6b6457e090600090a35050565b6127106001600160601b0382161115611bf45760405162461bcd60e51b815260206004820152602a60248201527f455243323938313a20726f79616c7479206665652077696c6c206578636565646044820152692073616c65507269636560b01b6064820152608401610d61565b6001600160a01b038216611c4a5760405162461bcd60e51b815260206004820152601960248201527f455243323938313a20696e76616c6964207265636569766572000000000000006044820152606401610d61565b604080518082019091526001600160a01b039092168083526001600160601b039091166020909201829052600160a01b90910217600955565b6040805160808101825260008082526020820181905291810182905260608101919091526000828152600460205260409020546108d790611e9f565b604051630a85bd0160e11b81526000906001600160a01b0385169063150b7a0290611cf490339089908890889060040161275a565b6020604051808303816000875af1925050508015611d2f575060408051601f3d908101601f19168201909252611d2c91810190612797565b60015b611d8d573d808015611d5d576040519150601f19603f3d011682016040523d82523d6000602084013e611d62565b606091505b508051600003611d85576040516368d2bf6b60e11b815260040160405180910390fd5b805181602001fd5b6001600160e01b031916630a85bd0160e11b149050949350505050565b6040805160808101825260008082526020820181905291810182905260608101919091526108d7611dda836117e5565b611e9f565b610d74828260405180602001604052806000815250611ee6565b600081815b8451811015611e3e57611e2a82868381518110611e1d57611e1d61267d565b6020026020010151611f53565b915080611e36816127b4565b915050611dfe565b509392505050565b6002600b5403611e985760405162461bcd60e51b815260206004820152601f60248201527f5265656e7472616e637947756172643a207265656e7472616e742063616c6c006044820152606401610d61565b6002600b55565b604080516080810182526001600160a01b038316815260a083901c6001600160401b03166020820152600160e01b831615159181019190915260e89190911c606082015290565b611ef08383611f7f565b6001600160a01b0383163b15610d93576000548281035b611f1a6000868380600101945086611cbf565b611f37576040516368d2bf6b60e11b815260040160405180910390fd5b818110611f07578160005414611f4c57600080fd5b5050505050565b6000818310611f6f576000828152602084905260409020610c66565b5060009182526020526040902090565b6000805490829003611fa45760405163b562e8dd60e01b815260040160405180910390fd5b6001600160a01b03831660008181526005602090815260408083208054680100000000000000018802019055848352600490915281206001851460e11b4260a01b178317905582840190839083907fddf252ad1be2c89b69c2b068fc378daa952ba7f163c4a11628f55a4df523b3ef8180a4600183015b81811461205357808360007fddf252ad1be2c89b69c2b068fc378daa952ba7f163c4a11628f55a4df523b3ef600080a460010161201b565b508160000361207457604051622e076360e81b815260040160405180910390fd5b60005550505050565b6001600160e01b031981168114610e7957600080fd5b6000602082840312156120a557600080fd5b8135610c668161207d565b60005b838110156120cb5781810151838201526020016120b3565b8381111561126b5750506000910152565b600081518084526120f48160208601602086016120b0565b601f01601f19169290920160200192915050565b602081526000610c6660208301846120dc565b60006020828403121561212d57600080fd5b5035919050565b6001600160a01b0381168114610e7957600080fd5b6000806040838503121561215c57600080fd5b823561216781612134565b946020939093013593505050565b60008060006060848603121561218a57600080fd5b833561219581612134565b925060208401356121a581612134565b929592945050506040919091013590565b60008083601f8401126121c857600080fd5b5081356001600160401b038111156121df57600080fd5b6020830191508360208260051b8501011115610d1457600080fd5b60008060006040848603121561220f57600080fd5b833561221a81612134565b925060208401356001600160401b0381111561223557600080fd5b612241868287016121b6565b9497909650939450505050565b6000806040838503121561226157600080fd5b50508035926020909101359150565b6000806020838503121561228357600080fd5b82356001600160401b0381111561229957600080fd5b6122a5858286016121b6565b90969095509350505050565b80516001600160a01b031682526020808201516001600160401b03169083015260408082015115159083015260609081015162ffffff16910152565b6020808252825182820181905260009190848201906040850190845b818110156110045761231c8385516122b1565b9284019260809290920191600101612309565b60006020828403121561234157600080fd5b8135610c6681612134565b6000806040838503121561235f57600080fd5b823561236a81612134565b915060208301356001600160601b038116811461238657600080fd5b809150509250929050565b6020808252825182820181905260009190848201906040850190845b81811015611004578351835292840192918401916001016123ad565b6000806000606084860312156123de57600080fd5b83356123e981612134565b95602085013595506040909401359392505050565b8035801515811461240e57600080fd5b919050565b6000806040838503121561242657600080fd5b823561243181612134565b915061243f602084016123fe565b90509250929050565b634e487b7160e01b600052604160045260246000fd5b604051601f8201601f191681016001600160401b038111828210171561248657612486612448565b604052919050565b60006001600160401b038211156124a7576124a7612448565b50601f01601f191660200190565b600080600080608085870312156124cb57600080fd5b84356124d681612134565b935060208501356124e681612134565b92506040850135915060608501356001600160401b0381111561250857600080fd5b8501601f8101871361251957600080fd5b803561252c6125278261248e565b61245e565b81815288602083850101111561254157600080fd5b8160208401602083013760006020838301015280935050505092959194509250565b60006020828403121561257557600080fd5b610c66826123fe565b608081016108d782846122b1565b6000806040838503121561259f57600080fd5b82356125aa81612134565b9150602083013561238681612134565b6000806000604084860312156125cf57600080fd5b8335925060208401356001600160401b0381111561223557600080fd5b600181811c9082168061260057607f821691505b60208210810361262057634e487b7160e01b600052602260045260246000fd5b50919050565b634e487b7160e01b600052601160045260246000fd5b600081600019048311821515161561265657612656612626565b500290565b60008261267857634e487b7160e01b600052601260045260246000fd5b500490565b634e487b7160e01b600052603260045260246000fd5b6040815260006126a660408301856120dc565b90508260208301529392505050565b6000602082840312156126c757600080fd5b81516001600160401b038111156126dd57600080fd5b8201601f810184136126ee57600080fd5b80516126fc6125278261248e565b81815285602083850101111561271157600080fd5b6127228260208301602086016120b0565b95945050505050565b6000821982111561273e5761273e612626565b500190565b60008282101561275557612755612626565b500390565b6001600160a01b038581168252841660208201526040810183905260806060820181905260009061278d908301846120dc565b9695505050505050565b6000602082840312156127a957600080fd5b8151610c668161207d565b6000600182016127c6576127c6612626565b506001019056feb08889abce443443404b2caf69aa3ccfb9ebfdf1ad2a634d06e11e24c1067938a2646970667358221220343162d31d2edc502a3762baa0a0418cbe13dfe0633e85e6f016a78e6dde62b264736f6c634300080f0033",
  "linkReferences": {},
  "deployedLinkReferences": {}
}