{
  "_format": "hh-sol-artifact-1",
  "contractName": "Coordinates",
  "sourceName": "contracts/Coordinates.sol",
  "abi": [
    {
      "inputs": [
        {
          "internalType": "address",
          "name": "metadata_",
          "type": "address"
        },
        {
          "internalType": "address",
          "name": "splitter_",
          "type": "address"
        }
      ],
      "stateMutability": "nonpayable",
      "type": "constructor"
    },
    {
      "inputs": [],
      "name": "ApprovalCallerNotOwnerNorApproved",
      "type": "error"
    },
    {
      "inputs": [],
      "name": "ApprovalQueryForNonexistentToken",
      "type": "error"
    },
    {
      "inputs": [],
      "name": "BalanceQueryForZeroAddress",
      "type": "error"
    },
    {
      "inputs": [],
      "name": "InvalidQueryRange",
      "type": "error"
    },
    {
      "inputs": [],
      "name": "MintERC2309QuantityExceedsLimit",
      "type": "error"
    },
    {
      "inputs": [],
      "name": "MintToZeroAddress",
      "type": "error"
    },
    {
      "inputs": [],
      "name": "MintZeroQuantity",
      "type": "error"
    },
    {
      "inputs": [],
      "name": "OwnerQueryForNonexistentToken",
      "type": "error"
    },
    {
      "inputs": [],
      "name": "OwnershipNotInitializedForExtraData",
      "type": "error"
    },
    {
      "inputs": [],
      "name": "TransferCallerNotOwnerNorApproved",
      "type": "error"
    },
    {
      "inputs": [],
      "name": "TransferFromIncorrectOwner",
      "type": "error"
    },
    {
      "inputs": [],
      "name": "TransferToNonERC721ReceiverImplementer",
      "type": "error"
    },
    {
      "inputs": [],
      "name": "TransferToZeroAddress",
      "type": "error"
    },
    {
      "inputs": [],
      "name": "URIQueryForNonexistentToken",
      "type": "error"
    },
    {
      "anonymous": false,
      "inputs": [
        {
          "indexed": true,
          "internalType": "address",
          "name": "owner",
          "type": "address"
        },
        {
          "indexed": true,
          "internalType": "address",
          "name": "approved",
          "type": "address"
        },
        {
          "indexed": true,
          "internalType": "uint256",
          "name": "tokenId",
          "type": "uint256"
        }
      ],
      "name": "Approval",
      "type": "event"
    },
    {
      "anonymous": false,
      "inputs": [
        {
          "indexed": true,
          "internalType": "address",
          "name": "owner",
          "type": "address"
        },
        {
          "indexed": true,
          "internalType": "address",
          "name": "operator",
          "type": "address"
        },
        {
          "indexed": false,
          "internalType": "bool",
          "name": "approved",
          "type": "bool"
        }
      ],
      "name": "ApprovalForAll",
      "type": "event"
    },
    {
      "anonymous": false,
      "inputs": [
        {
          "indexed": true,
          "internalType": "uint256",
          "name": "fromTokenId",
          "type": "uint256"
        },
        {
          "indexed": false,
          "internalType": "uint256",
          "name": "toTokenId",
          "type": "uint256"
        },
        {
          "indexed": true,
          "internalType": "address",
          "name": "from",
          "type": "address"
        },
        {
          "indexed": true,
          "internalType": "address",
          "name": "to",
          "type": "address"
        }
      ],
      "name": "ConsecutiveTransfer",
      "type": "event"
    },
    {
      "anonymous": false,
      "inputs": [
        {
          "indexed": true,
          "internalType": "address",
          "name": "to",
          "type": "address"
        },
        {
          "indexed": true,
          "internalType": "bool",
          "name": "success",
          "type": "bool"
        },
        {
          "indexed": false,
          "internalType": "bytes",
          "name": "returnData",
          "type": "bytes"
        },
        {
          "indexed": false,
          "internalType": "uint256",
          "name": "amount",
          "type": "uint256"
        }
      ],
      "name": "EthMoved",
      "type": "event"
    },
    {
      "anonymous": false,
      "inputs": [
        {
          "indexed": true,
          "internalType": "address",
          "name": "previousOwner",
          "type": "address"
        },
        {
          "indexed": true,
          "internalType": "address",
          "name": "newOwner",
          "type": "address"
        }
      ],
      "name": "OwnershipTransferred",
      "type": "event"
    },
    {
      "anonymous": false,
      "inputs": [
        {
          "indexed": true,
          "internalType": "address",
          "name": "from",
          "type": "address"
        },
        {
          "indexed": true,
          "internalType": "address",
          "name": "to",
          "type": "address"
        },
        {
          "indexed": true,
          "internalType": "uint256",
          "name": "tokenId",
          "type": "uint256"
        }
      ],
      "name": "Transfer",
      "type": "event"
    },
    {
      "stateMutability": "payable",
      "type": "fallback"
    },
    {
      "inputs": [],
      "name": "MAX_PER_PREMINT",
      "outputs": [
        {
          "internalType": "uint256",
          "name": "",
          "type": "uint256"
        }
      ],
      "stateMutability": "view",
      "type": "function"
    },
    {
      "inputs": [],
      "name": "MAX_SUPPLY",
      "outputs": [
        {
          "internalType": "uint256",
          "name": "",
          "type": "uint256"
        }
      ],
      "stateMutability": "view",
      "type": "function"
    },
    {
      "inputs": [
        {
          "internalType": "address",
          "name": "recipient",
          "type": "address"
        },
        {
          "internalType": "uint256",
          "name": "quantity",
          "type": "uint256"
        }
      ],
      "name": "adminMint",
      "outputs": [],
      "stateMutability": "payable",
      "type": "function"
    },
    {
      "inputs": [
        {
          "internalType": "address",
          "name": "_wallet",
          "type": "address"
        },
        {
          "internalType": "bytes32[]",
          "name": "_proof",
          "type": "bytes32[]"
        }
      ],
      "name": "allowListed",
      "outputs": [
        {
          "internalType": "bool",
          "name": "",
          "type": "bool"
        }
      ],
      "stateMutability": "view",
      "type": "function"
    },
    {
      "inputs": [
        {
          "internalType": "address",
          "name": "to",
          "type": "address"
        },
        {
          "internalType": "uint256",
          "name": "tokenId",
          "type": "uint256"
        }
      ],
      "name": "approve",
      "outputs": [],
      "stateMutability": "payable",
      "type": "function"
    },
    {
      "inputs": [
        {
          "internalType": "address",
          "name": "owner",
          "type": "address"
        }
      ],
      "name": "balanceOf",
      "outputs": [
        {
          "internalType": "uint256",
          "name": "",
          "type": "uint256"
        }
      ],
      "stateMutability": "view",
      "type": "function"
    },
    {
      "inputs": [
        {
          "internalType": "uint256",
          "name": "tokenId",
          "type": "uint256"
        }
      ],
      "name": "explicitOwnershipOf",
      "outputs": [
        {
          "components": [
            {
              "internalType": "address",
              "name": "addr",
              "type": "address"
            },
            {
              "internalType": "uint64",
              "name": "startTimestamp",
              "type": "uint64"
            },
            {
              "internalType": "bool",
              "name": "burned",
              "type": "bool"
            },
            {
              "internalType": "uint24",
              "name": "extraData",
              "type": "uint24"
            }
          ],
          "internalType": "struct IERC721A.TokenOwnership",
          "name": "",
          "type": "tuple"
        }
      ],
      "stateMutability": "view",
      "type": "function"
    },
    {
      "inputs": [
        {
          "internalType": "uint256[]",
          "name": "tokenIds",
          "type": "uint256[]"
        }
      ],
      "name": "explicitOwnershipsOf",
      "outputs": [
        {
          "components": [
            {
              "internalType": "address",
              "name": "addr",
              "type": "address"
            },
            {
              "internalType": "uint64",
              "name": "startTimestamp",
              "type": "uint64"
            },
            {
              "internalType": "bool",
              "name": "burned",
              "type": "bool"
            },
            {
              "internalType": "uint24",
              "name": "extraData",
              "type": "uint24"
            }
          ],
          "internalType": "struct IERC721A.TokenOwnership[]",
          "name": "",
          "type": "tuple[]"
        }
      ],
      "stateMutability": "view",
      "type": "function"
    },
    {
      "inputs": [],
      "name": "forceOpen",
      "outputs": [
        {
          "internalType": "bool",
          "name": "",
          "type": "bool"
        }
      ],
      "stateMutability": "view",
      "type": "function"
    },
    {
      "inputs": [
        {
          "internalType": "uint256",
          "name": "tokenId",
          "type": "uint256"
        }
      ],
      "name": "getApproved",
      "outputs": [
        {
          "internalType": "address",
          "name": "",
          "type": "address"
        }
      ],
      "stateMutability": "view",
      "type": "function"
    },
    {
      "inputs": [
        {
          "internalType": "address",
          "name": "owner",
          "type": "address"
        },
        {
          "internalType": "address",
          "name": "operator",
          "type": "address"
        }
      ],
      "name": "isApprovedForAll",
      "outputs": [
        {
          "internalType": "bool",
          "name": "",
          "type": "bool"
        }
      ],
      "stateMutability": "view",
      "type": "function"
    },
    {
      "inputs": [],
      "name": "merkleRoot",
      "outputs": [
        {
          "internalType": "bytes32",
          "name": "",
          "type": "bytes32"
        }
      ],
      "stateMutability": "view",
      "type": "function"
    },
    {
      "inputs": [],
      "name": "metadata",
      "outputs": [
        {
          "internalType": "address",
          "name": "",
          "type": "address"
        }
      ],
      "stateMutability": "view",
      "type": "function"
    },
    {
      "inputs": [],
      "name": "mint",
      "outputs": [],
      "stateMutability": "payable",
      "type": "function"
    },
    {
      "inputs": [
        {
          "internalType": "address",
          "name": "recipient",
          "type": "address"
        },
        {
          "internalType": "uint256",
          "name": "quantity",
          "type": "uint256"
        }
      ],
      "name": "mint",
      "outputs": [],
      "stateMutability": "payable",
      "type": "function"
    },
    {
      "inputs": [
        {
          "internalType": "address",
          "name": "recipient",
          "type": "address"
        }
      ],
      "name": "mint",
      "outputs": [],
      "stateMutability": "payable",
      "type": "function"
    },
    {
      "inputs": [
        {
          "internalType": "uint256",
          "name": "quantity",
          "type": "uint256"
        }
      ],
      "name": "mint",
      "outputs": [],
      "stateMutability": "payable",
      "type": "function"
    },
    {
      "inputs": [
        {
          "internalType": "uint256",
          "name": "quantity",
          "type": "uint256"
        },
        {
          "internalType": "bytes32[]",
          "name": "_proof",
          "type": "bytes32[]"
        }
      ],
      "name": "mintAllowList",
      "outputs": [],
      "stateMutability": "payable",
      "type": "function"
    },
    {
      "inputs": [],
      "name": "name",
      "outputs": [
        {
          "internalType": "string",
          "name": "",
          "type": "string"
        }
      ],
      "stateMutability": "view",
      "type": "function"
    },
    {
      "inputs": [],
      "name": "owner",
      "outputs": [
        {
          "internalType": "address",
          "name": "",
          "type": "address"
        }
      ],
      "stateMutability": "view",
      "type": "function"
    },
    {
      "inputs": [
        {
          "internalType": "uint256",
          "name": "tokenId",
          "type": "uint256"
        }
      ],
      "name": "ownerOf",
      "outputs": [
        {
          "internalType": "address",
          "name": "",
          "type": "address"
        }
      ],
      "stateMutability": "view",
      "type": "function"
    },
    {
      "inputs": [],
      "name": "paused",
      "outputs": [
        {
          "internalType": "bool",
          "name": "",
          "type": "bool"
        }
      ],
      "stateMutability": "view",
      "type": "function"
    },
    {
      "inputs": [],
      "name": "premint",
      "outputs": [
        {
          "internalType": "uint256",
          "name": "",
          "type": "uint256"
        }
      ],
      "stateMutability": "view",
      "type": "function"
    },
    {
      "inputs": [
        {
          "internalType": "address",
          "name": "",
          "type": "address"
        }
      ],
      "name": "preminted",
      "outputs": [
        {
          "internalType": "uint256",
          "name": "",
          "type": "uint256"
        }
      ],
      "stateMutability": "view",
      "type": "function"
    },
    {
      "inputs": [],
      "name": "price",
      "outputs": [
        {
          "internalType": "uint256",
          "name": "",
          "type": "uint256"
        }
      ],
      "stateMutability": "view",
      "type": "function"
    },
    {
      "inputs": [
        {
          "internalType": "address payable",
          "name": "_to",
          "type": "address"
        }
      ],
      "name": "recoverUnsuccessfulMintPayment",
      "outputs": [],
      "stateMutability": "nonpayable",
      "type": "function"
    },
    {
      "inputs": [],
      "name": "renounceOwnership",
      "outputs": [],
      "stateMutability": "nonpayable",
      "type": "function"
    },
    {
      "inputs": [
        {
          "internalType": "uint256",
          "name": "tokenId",
          "type": "uint256"
        },
        {
          "internalType": "uint256",
          "name": "salePrice",
          "type": "uint256"
        }
      ],
      "name": "royaltyInfo",
      "outputs": [
        {
          "internalType": "address",
          "name": "",
          "type": "address"
        },
        {
          "internalType": "uint256",
          "name": "",
          "type": "uint256"
        }
      ],
      "stateMutability": "view",
      "type": "function"
    },
    {
      "inputs": [
        {
          "internalType": "address",
          "name": "from",
          "type": "address"
        },
        {
          "internalType": "address",
          "name": "to",
          "type": "address"
        },
        {
          "internalType": "uint256",
          "name": "tokenId",
          "type": "uint256"
        }
      ],
      "name": "safeTransferFrom",
      "outputs": [],
      "stateMutability": "payable",
      "type": "function"
    },
    {
      "inputs": [
        {
          "internalType": "address",
          "name": "from",
          "type": "address"
        },
        {
          "internalType": "address",
          "name": "to",
          "type": "address"
        },
        {
          "internalType": "uint256",
          "name": "tokenId",
          "type": "uint256"
        },
        {
          "internalType": "bytes",
          "name": "_data",
          "type": "bytes"
        }
      ],
      "name": "safeTransferFrom",
      "outputs": [],
      "stateMutability": "payable",
      "type": "function"
    },
    {
      "inputs": [
        {
          "internalType": "address",
          "name": "operator",
          "type": "address"
        },
        {
          "internalType": "bool",
          "name": "approved",
          "type": "bool"
        }
      ],
      "name": "setApprovalForAll",
      "outputs": [],
      "stateMutability": "nonpayable",
      "type": "function"
    },
    {
      "inputs": [
        {
          "internalType": "bool",
          "name": "forceOpen_",
          "type": "bool"
        }
      ],
      "name": "setForceOpen",
      "outputs": [],
      "stateMutability": "nonpayable",
      "type": "function"
    },
    {
      "inputs": [
        {
          "internalType": "bytes32",
          "name": "merkleRoot_",
          "type": "bytes32"
        }
      ],
      "name": "setMerkleRoot",
      "outputs": [],
      "stateMutability": "nonpayable",
      "type": "function"
    },
    {
      "inputs": [
        {
          "internalType": "address",
          "name": "metadata_",
          "type": "address"
        }
      ],
      "name": "setMetadata",
      "outputs": [],
      "stateMutability": "nonpayable",
      "type": "function"
    },
    {
      "inputs": [
        {
          "internalType": "bool",
          "name": "paused_",
          "type": "bool"
        }
      ],
      "name": "setPause",
      "outputs": [],
      "stateMutability": "nonpayable",
      "type": "function"
    },
    {
      "inputs": [
        {
          "internalType": "uint256",
          "name": "premint_",
          "type": "uint256"
        }
      ],
      "name": "setPremint",
      "outputs": [],
      "stateMutability": "nonpayable",
      "type": "function"
    },
    {
      "inputs": [
        {
          "internalType": "uint256",
          "name": "price_",
          "type": "uint256"
        }
      ],
      "name": "setPrice",
      "outputs": [],
      "stateMutability": "nonpayable",
      "type": "function"
    },
    {
      "inputs": [
        {
          "internalType": "address",
          "name": "royaltyReceiver",
          "type": "address"
        },
        {
          "internalType": "uint96",
          "name": "royaltyPercentage",
          "type": "uint96"
        }
      ],
      "name": "setRoyaltyPercentage",
      "outputs": [],
      "stateMutability": "nonpayable",
      "type": "function"
    },
    {
      "inputs": [
        {
          "internalType": "address",
          "name": "splitter_",
          "type": "address"
        }
      ],
      "name": "setSplitter",
      "outputs": [],
      "stateMutability": "nonpayable",
      "type": "function"
    },
    {
      "inputs": [
        {
          "internalType": "uint256",
          "name": "startdate_",
          "type": "uint256"
        }
      ],
      "name": "setStartdate",
      "outputs": [],
      "stateMutability": "nonpayable",
      "type": "function"
    },
    {
      "inputs": [],
      "name": "splitter",
      "outputs": [
        {
          "internalType": "address",
          "name": "",
          "type": "address"
        }
      ],
      "stateMutability": "view",
      "type": "function"
    },
    {
      "inputs": [],
      "name": "startdate",
      "outputs": [
        {
          "internalType": "uint256",
          "name": "",
          "type": "uint256"
        }
      ],
      "stateMutability": "view",
      "type": "function"
    },
    {
      "inputs": [
        {
          "internalType": "bytes4",
          "name": "interfaceId",
          "type": "bytes4"
        }
      ],
      "name": "supportsInterface",
      "outputs": [
        {
          "internalType": "bool",
          "name": "",
          "type": "bool"
        }
      ],
      "stateMutability": "view",
      "type": "function"
    },
    {
      "inputs": [],
      "name": "symbol",
      "outputs": [
        {
          "internalType": "string",
          "name": "",
          "type": "string"
        }
      ],
      "stateMutability": "view",
      "type": "function"
    },
    {
      "inputs": [
        {
          "internalType": "uint256",
          "name": "id",
          "type": "uint256"
        }
      ],
      "name": "tokenURI",
      "outputs": [
        {
          "internalType": "string",
          "name": "",
          "type": "string"
        }
      ],
      "stateMutability": "view",
      "type": "function"
    },
    {
      "inputs": [
        {
          "internalType": "address",
          "name": "owner",
          "type": "address"
        }
      ],
      "name": "tokensOfOwner",
      "outputs": [
        {
          "internalType": "uint256[]",
          "name": "",
          "type": "uint256[]"
        }
      ],
      "stateMutability": "view",
      "type": "function"
    },
    {
      "inputs": [
        {
          "internalType": "address",
          "name": "owner",
          "type": "address"
        },
        {
          "internalType": "uint256",
          "name": "start",
          "type": "uint256"
        },
        {
          "internalType": "uint256",
          "name": "stop",
          "type": "uint256"
        }
      ],
      "name": "tokensOfOwnerIn",
      "outputs": [
        {
          "internalType": "uint256[]",
          "name": "",
          "type": "uint256[]"
        }
      ],
      "stateMutability": "view",
      "type": "function"
    },
    {
      "inputs": [],
      "name": "totalSupply",
      "outputs": [
        {
          "internalType": "uint256",
          "name": "",
          "type": "uint256"
        }
      ],
      "stateMutability": "view",
      "type": "function"
    },
    {
      "inputs": [
        {
          "internalType": "address",
          "name": "from",
          "type": "address"
        },
        {
          "internalType": "address",
          "name": "to",
          "type": "address"
        },
        {
          "internalType": "uint256",
          "name": "tokenId",
          "type": "uint256"
        }
      ],
      "name": "transferFrom",
      "outputs": [],
      "stateMutability": "payable",
      "type": "function"
    },
    {
      "inputs": [
        {
          "internalType": "address",
          "name": "newOwner",
          "type": "address"
        }
      ],
      "name": "transferOwnership",
      "outputs": [],
      "stateMutability": "nonpayable",
      "type": "function"
    },
    {
      "stateMutability": "payable",
      "type": "receive"
    }
  ],
  "bytecode": "0x6080604052600c805461ffff19169055670354a6ba7a180000600d556365414eb0601055636542a0306011557f7eb11619d1dd456844424b6c6f1be20ba3552298bb97a978724278ddebbd44746012553480156200005c57600080fd5b5060405162002d3438038062002d348339810160408190526200007f91620002af565b6040518060400160405280600b81526020016a436f6f7264696e6174657360a81b8152506040518060400160405280600381526020016210d49160ea1b8152508160029081620000d091906200038c565b506003620000df82826200038c565b5050600160005550620000f2336200013b565b6001600b55600e80546001600160a01b038085166001600160a01b031992831617909255600f8054928416929091168217905562000133906102ee6200018d565b505062000458565b600880546001600160a01b038381166001600160a01b0319831681179093556040519116919082907f8be0079c531659141344cd1fd0a4f28419497f9722a3daafe3b4186f6b6457e090600090a35050565b6127106001600160601b0382161115620002015760405162461bcd60e51b815260206004820152602a60248201527f455243323938313a20726f79616c7479206665652077696c6c206578636565646044820152692073616c65507269636560b01b60648201526084015b60405180910390fd5b6001600160a01b038216620002595760405162461bcd60e51b815260206004820152601960248201527f455243323938313a20696e76616c6964207265636569766572000000000000006044820152606401620001f8565b604080518082019091526001600160a01b039092168083526001600160601b039091166020909201829052600160a01b90910217600955565b80516001600160a01b0381168114620002aa57600080fd5b919050565b60008060408385031215620002c357600080fd5b620002ce8362000292565b9150620002de6020840162000292565b90509250929050565b634e487b7160e01b600052604160045260246000fd5b600181811c908216806200031257607f821691505b6020821081036200033357634e487b7160e01b600052602260045260246000fd5b50919050565b601f8211156200038757600081815260208120601f850160051c81016020861015620003625750805b601f850160051c820191505b8181101562000383578281556001016200036e565b5050505b505050565b81516001600160401b03811115620003a857620003a8620002e7565b620003c081620003b98454620002fd565b8462000339565b602080601f831160018114620003f85760008415620003df5750858301515b600019600386901b1c1916600185901b17855562000383565b600085815260208120601f198616915b82811015620004295788860151825594840194600190910190840162000408565b5085821015620004485787850151600019600388901b60f8161c191681555b5050505050600190811b01905550565b6128cc80620004686000396000f3fe6080604052600436106102cd5760003560e01c8063818779ef11610175578063c09fd8ef116100dc578063d410f56911610095578063e985e9c51161006f578063e985e9c514610848578063f2fde38b14610891578063f3cb8385146108b1578063fa05a657146108d1576102dc565b8063d410f569146107f5578063e2ba4d4614610815578063e58306f914610835576102dc565b8063c09fd8ef14610725578063c23dc68f14610745578063c87b56dd14610772578063c93fc83d14610792578063ccd682bc146107b2578063cde9f2ea146107df576102dc565b806399a2557a1161012e57806399a2557a14610689578063a035b1fe146106a9578063a0712d68146106bf578063a22cb465146106d2578063b88d4fde146106f2578063bedb86fb14610705576102dc565b8063818779ef146105ca5780638462151c146105ea5780638da5cb5b1461061757806391b7f5ed1461063557806393c61c1c1461065557806395d89b4114610674576102dc565b80633cd8045e116102345780635c975abb116101ed57806370a08231116101c757806370a0823114610555578063715018a61461057557806375fb32251461058a5780637cb64759146105aa576102dc565b80635c975abb146105085780636352211e146105225780636a62784214610542576102dc565b80633cd8045e1461046a57806340c10f191461048a578063410871dd1461049d57806342842e0e146104b257806348a1e66b146104c55780635bbb2177146104db576102dc565b806323b872dd1161028657806323b872dd146103ad578063247155ff146103c05780632a55205a146103e05780632eb4a7ab1461041f57806332cb6b0c14610435578063392f37e91461044a576102dc565b806301ffc9a7146102e457806306fdde0314610319578063081812fc1461033b578063095ea7b3146103735780631249c58b146102dc57806318160ddd14610386576102dc565b366102dc576102da6108e4565b005b6102da6108e4565b3480156102f057600080fd5b506103046102ff36600461213c565b6108f1565b60405190151581526020015b60405180910390f35b34801561032557600080fd5b5061032e610952565b60405161031091906121b1565b34801561034757600080fd5b5061035b6103563660046121c4565b6109e4565b6040516001600160a01b039091168152602001610310565b6102da6103813660046121f2565b610a28565b34801561039257600080fd5b5060015460005403600019015b604051908152602001610310565b6102da6103bb36600461221e565b610ac8565b3480156103cc57600080fd5b506103046103db3660046122a3565b610c60565b3480156103ec57600080fd5b506104006103fb3660046122f7565b610ce2565b604080516001600160a01b039093168352602083019190915201610310565b34801561042b57600080fd5b5061039f60125481565b34801561044157600080fd5b5061039f608b81565b34801561045657600080fd5b50600e5461035b906001600160a01b031681565b34801561047657600080fd5b50600f5461035b906001600160a01b031681565b6102da6104983660046121f2565b610d90565b3480156104a957600080fd5b5061039f600281565b6102da6104c036600461221e565b610dff565b3480156104d157600080fd5b5061039f60105481565b3480156104e757600080fd5b506104fb6104f6366004612319565b610e1f565b6040516103109190612396565b34801561051457600080fd5b50600c546103049060ff1681565b34801561052e57600080fd5b5061035b61053d3660046121c4565b610eea565b6102da6105503660046123d8565b610ef5565b34801561056157600080fd5b5061039f6105703660046123d8565b610f03565b34801561058157600080fd5b506102da610f51565b34801561059657600080fd5b506102da6105a53660046121c4565b610f63565b3480156105b657600080fd5b506102da6105c53660046121c4565b610f70565b3480156105d657600080fd5b506102da6105e53660046123f5565b610f7d565b3480156105f657600080fd5b5061060a6106053660046123d8565b610f8f565b604051610310919061243a565b34801561062357600080fd5b506008546001600160a01b031661035b565b34801561064157600080fd5b506102da6106503660046121c4565b611097565b34801561066157600080fd5b50600c5461030490610100900460ff1681565b34801561068057600080fd5b5061032e6110a4565b34801561069557600080fd5b5061060a6106a4366004612472565b6110b3565b3480156106b557600080fd5b5061039f600d5481565b6102da6106cd3660046121c4565b611238565b3480156106de57600080fd5b506102da6106ed3660046124bc565b611242565b6102da61070036600461255e565b6112ae565b34801561071157600080fd5b506102da61072036600461260c565b6112f8565b34801561073157600080fd5b506102da6107403660046123d8565b611313565b34801561075157600080fd5b506107656107603660046121c4565b6113ae565b6040516103109190612627565b34801561077e57600080fd5b5061032e61078d3660046121c4565b611436565b34801561079e57600080fd5b506102da6107ad3660046123d8565b6114a8565b3480156107be57600080fd5b5061039f6107cd3660046123d8565b60136020526000908152604090205481565b3480156107eb57600080fd5b5061039f60115481565b34801561080157600080fd5b506102da6108103660046121c4565b61151a565b34801561082157600080fd5b506102da61083036600461260c565b611527565b6102da6108433660046121f2565b611549565b34801561085457600080fd5b50610304610863366004612635565b6001600160a01b03918216600090815260076020908152604080832093909416825291909152205460ff1690565b34801561089d57600080fd5b506102da6108ac3660046123d8565b6115f3565b3480156108bd57600080fd5b506102da6108cc3660046123d8565b611669565b6102da6108df366004612663565b6116db565b6108ef336001610d90565b565b60006001600160e01b031982166380ac58cd60e01b148061092257506001600160e01b03198216635b5e139f60e01b145b8061093d57506001600160e01b0319821663152a902d60e11b145b8061094c575061094c82611824565b92915050565b60606002805461096190612695565b80601f016020809104026020016040519081016040528092919081815260200182805461098d90612695565b80156109da5780601f106109af576101008083540402835291602001916109da565b820191906000526020600020905b8154815290600101906020018083116109bd57829003601f168201915b5050505050905090565b60006109ef82611859565b610a0c576040516333d1c03960e21b815260040160405180910390fd5b506000908152600660205260409020546001600160a01b031690565b6000610a3382610eea565b9050336001600160a01b03821614610a6c57610a4f8133610863565b610a6c576040516367d9dca160e11b815260040160405180910390fd5b60008281526006602052604080822080546001600160a01b0319166001600160a01b0387811691821790925591518593918516917f8c5be1e5ebec7d5bd14f71427d1e84f3dd0314c0f7b2291e5b200ac8c7c3b92591a4505050565b6000610ad38261188e565b9050836001600160a01b0316816001600160a01b031614610b065760405162a1148160e81b815260040160405180910390fd5b60008281526006602052604090208054338082146001600160a01b03881690911417610b5357610b368633610863565b610b5357604051632ce44b5f60e11b815260040160405180910390fd5b6001600160a01b038516610b7a57604051633a954ecd60e21b815260040160405180910390fd5b8015610b8557600082555b6001600160a01b038681166000908152600560205260408082208054600019019055918716808252919020805460010190554260a01b17600160e11b17600085815260046020526040812091909155600160e11b84169003610c1757600184016000818152600460205260408120549003610c15576000548114610c155760008181526004602052604090208490555b505b83856001600160a01b0316876001600160a01b03167fddf252ad1be2c89b69c2b068fc378daa952ba7f163c4a11628f55a4df523b3ef60405160405180910390a4505050505050565b6000610cd8838380806020026020016040519081016040528093929190818152602001838360200280828437600092019190915250506012546040516bffffffffffffffffffffffff1960608b901b1660208201529092506034019050604051602081830303815290604052805190602001206118fd565b90505b9392505050565b6000828152600a602090815260408083208151808301909252546001600160a01b038116808352600160a01b9091046001600160601b0316928201929092528291610d575750604080518082019091526009546001600160a01b0381168252600160a01b90046001600160601b031660208201525b602081015160009061271090610d76906001600160601b0316876126e5565b610d809190612704565b91519350909150505b9250929050565b600c5460ff16158015610da557506011544210155b80610db75750600c54610100900460ff165b610df15760405162461bcd60e51b815260206004820152600660248201526514105554d15160d21b60448201526064015b60405180910390fd5b610dfb8282611913565b5050565b610e1a838383604051806020016040528060008152506112ae565b505050565b6060816000816001600160401b03811115610e3c57610e3c6124f1565b604051908082528060200260200182016040528015610e8e57816020015b604080516080810182526000808252602080830182905292820181905260608201528252600019909201910181610e5a5790505b50905060005b828114610ee157610ebc868683818110610eb057610eb0612726565b905060200201356113ae565b828281518110610ece57610ece612726565b6020908102919091010152600101610e94565b50949350505050565b600061094c8261188e565b610f00816001610d90565b50565b60006001600160a01b038216610f2c576040516323d3ad8160e21b815260040160405180910390fd5b506001600160a01b03166000908152600560205260409020546001600160401b031690565b610f59611b83565b6108ef6000611bdd565b610f6b611b83565b601055565b610f78611b83565b601255565b610f85611b83565b610dfb8282611c2f565b60606000806000610f9f85610f03565b90506000816001600160401b03811115610fbb57610fbb6124f1565b604051908082528060200260200182016040528015610fe4578160200160208202803683370190505b50905061101160408051608081018252600080825260208201819052918101829052606081019190915290565b60015b83861461108b5761102481611d2c565b915081604001516110835781516001600160a01b03161561104457815194505b876001600160a01b0316856001600160a01b031603611083578083878060010198508151811061107657611076612726565b6020026020010181815250505b600101611014565b50909695505050505050565b61109f611b83565b600d55565b60606003805461096190612695565b60608183106110d557604051631960ccad60e11b815260040160405180910390fd5b6000806110e160005490565b905060018510156110f157600194505b808411156110fd578093505b600061110887610f03565b9050848610156111275785850381811015611121578091505b5061112b565b5060005b6000816001600160401b03811115611145576111456124f1565b60405190808252806020026020018201604052801561116e578160200160208202803683370190505b50905081600003611184579350610cdb92505050565b600061118f886113ae565b9050600081604001516111a0575080515b885b8881141580156111b25750848714155b15611227576111c081611d2c565b9250826040015161121f5782516001600160a01b0316156111e057825191505b8a6001600160a01b0316826001600160a01b03160361121f578084888060010199508151811061121257611212612726565b6020026020010181815250505b6001016111a2565b505050928352509095945050505050565b610f003382610d90565b3360008181526007602090815260408083206001600160a01b03871680855290835292819020805460ff191686151590811790915590519081529192917f17307eab39ab6107e8899845ad3d59bd9653f200f220920489ca2b5937696c31910160405180910390a35050565b6112b9848484610ac8565b6001600160a01b0383163b156112f2576112d584848484611d68565b6112f2576040516368d2bf6b60e11b815260040160405180910390fd5b50505050565b611300611b83565b600c805460ff1916911515919091179055565b61131b611b83565b604051479060009081906001600160a01b0385169084908381818185875af1925050503d806000811461136a576040519150601f19603f3d011682016040523d82523d6000602084013e61136f565b606091505b5091509150811515846001600160a01b031660008051602061287783398151915283866040516113a092919061273c565b60405180910390a350505050565b604080516080810182526000808252602082018190529181018290526060810191909152604080516080810182526000808252602082018190529181018290526060810191909152600183108061140757506000548310155b156114125792915050565b61141b83611d2c565b905080604001511561142d5792915050565b610cdb83611e53565b600e5460405163295d33a960e21b8152600481018390526060916001600160a01b03169063a574cea490602401600060405180830381865afa158015611480573d6000803e3d6000fd5b505050506040513d6000823e601f3d908101601f1916820160405261094c919081019061275e565b6114b0611b83565b6001600160a01b0381166114f85760405162461bcd60e51b815260206004820152600f60248201526e4e4f205a45524f204144445245535360881b6044820152606401610de8565b600f80546001600160a01b0319166001600160a01b0392909216919091179055565b611522611b83565b601155565b61152f611b83565b600c80549115156101000261ff0019909216919091179055565b611551611b83565b600f5460405160009182916001600160a01b039091169034908381818185875af1925050503d80600081146115a2576040519150601f19603f3d011682016040523d82523d6000602084013e6115a7565b606091505b50600f54604051929450909250831515916001600160a01b0390911690600080516020612877833981519152906115e1908590349061273c565b60405180910390a36112f28484611e88565b6115fb611b83565b6001600160a01b0381166116605760405162461bcd60e51b815260206004820152602660248201527f4f776e61626c653a206e6577206f776e657220697320746865207a65726f206160448201526564647265737360d01b6064820152608401610de8565b610f0081611bdd565b611671611b83565b6001600160a01b0381166116b95760405162461bcd60e51b815260206004820152600f60248201526e4e4f205a45524f204144445245535360881b6044820152606401610de8565b600e80546001600160a01b0319166001600160a01b0392909216919091179055565b6116e6338383610c60565b6117325760405162461bcd60e51b815260206004820152601c60248201527f596f7520617265206e6f74206f6e2074686520616c6c6f776c697374000000006044820152606401610de8565b600c5460ff1615801561174757506010544210155b6117895760405162461bcd60e51b8152602060048201526013602482015272141c995b5a5b9d081b9bdd081cdd185c9d1959606a1b6044820152606401610de8565b336000908152601360205260409020546002906117a79085906127d4565b11156117f55760405162461bcd60e51b815260206004820152601f60248201527f596f752063616e206f6e6c79206d696e74203220706572207072656d696e74006044820152606401610de8565b33600090815260136020526040812080548592906118149084906127d4565b90915550610e1a90503384611913565b60006001600160e01b0319821663152a902d60e11b148061094c57506301ffc9a760e01b6001600160e01b031983161461094c565b60008160011115801561186d575060005482105b801561094c575050600090815260046020526040902054600160e01b161590565b600081806001116118e4576000548110156118e45760008181526004602052604081205490600160e01b821690036118e2575b80600003610cdb5750600019016000818152600460205260409020546118c1565b505b604051636f96cda160e11b815260040160405180910390fd5b60008261190a8584611ea2565b14949350505050565b61191b611eef565b80600d5461192991906126e5565b3410156119665760405162461bcd60e51b815260206004820152600b60248201526a57524f4e4720505249434560a81b6044820152606401610de8565b60058111156119b75760405162461bcd60e51b815260206004820181905260248201527f43414e2754204d494e54204d4f5245205448414e203520415420412054494d456044820152606401610de8565b600154600054608b91839103600019016119d191906127d4565b1115611a345760015460005403600019016119ed90608b6127ec565b905080600003611a345760405162461bcd60e51b81526020600482015260126024820152711350560814d5541413164814915050d2115160721b6044820152606401610de8565b6000600d5482611a4491906126e5565b600f5460405191925060009182916001600160a01b03169084908381818185875af1925050503d8060008114611a96576040519150601f19603f3d011682016040523d82523d6000602084013e611a9b565b606091505b50600f54604051929450909250831515916001600160a01b039091169060008051602061287783398151915290611ad5908590889061273c565b60405180910390a3611ae78585611e88565b34831015611b765733611afa84346127ec565b604051600081818185875af1925050503d8060008114611b36576040519150601f19603f3d011682016040523d82523d6000602084013e611b3b565b606091505b5090925090508115153360008051602061287783398151915283611b5f87346127ec565b604051611b6d92919061273c565b60405180910390a35b505050610dfb6001600b55565b6008546001600160a01b031633146108ef5760405162461bcd60e51b815260206004820181905260248201527f4f776e61626c653a2063616c6c6572206973206e6f7420746865206f776e65726044820152606401610de8565b600880546001600160a01b038381166001600160a01b0319831681179093556040519116919082907f8be0079c531659141344cd1fd0a4f28419497f9722a3daafe3b4186f6b6457e090600090a35050565b6127106001600160601b0382161115611c9d5760405162461bcd60e51b815260206004820152602a60248201527f455243323938313a20726f79616c7479206665652077696c6c206578636565646044820152692073616c65507269636560b01b6064820152608401610de8565b6001600160a01b038216611cf35760405162461bcd60e51b815260206004820152601960248201527f455243323938313a20696e76616c6964207265636569766572000000000000006044820152606401610de8565b604080518082019091526001600160a01b039092168083526001600160601b039091166020909201829052600160a01b90910217600955565b60408051608081018252600080825260208201819052918101829052606081019190915260008281526004602052604090205461094c90611f48565b604051630a85bd0160e11b81526000906001600160a01b0385169063150b7a0290611d9d903390899088908890600401612803565b6020604051808303816000875af1925050508015611dd8575060408051601f3d908101601f19168201909252611dd591810190612840565b60015b611e36573d808015611e06576040519150601f19603f3d011682016040523d82523d6000602084013e611e0b565b606091505b508051600003611e2e576040516368d2bf6b60e11b815260040160405180910390fd5b805181602001fd5b6001600160e01b031916630a85bd0160e11b149050949350505050565b60408051608081018252600080825260208201819052918101829052606081019190915261094c611e838361188e565b611f48565b610dfb828260405180602001604052806000815250611f8f565b600081815b8451811015611ee757611ed382868381518110611ec657611ec6612726565b6020026020010151611ffc565b915080611edf8161285d565b915050611ea7565b509392505050565b6002600b5403611f415760405162461bcd60e51b815260206004820152601f60248201527f5265656e7472616e637947756172643a207265656e7472616e742063616c6c006044820152606401610de8565b6002600b55565b604080516080810182526001600160a01b038316815260a083901c6001600160401b03166020820152600160e01b831615159181019190915260e89190911c606082015290565b611f998383612028565b6001600160a01b0383163b15610e1a576000548281035b611fc36000868380600101945086611d68565b611fe0576040516368d2bf6b60e11b815260040160405180910390fd5b818110611fb0578160005414611ff557600080fd5b5050505050565b6000818310612018576000828152602084905260409020610cdb565b5060009182526020526040902090565b600080549082900361204d5760405163b562e8dd60e01b815260040160405180910390fd5b6001600160a01b03831660008181526005602090815260408083208054680100000000000000018802019055848352600490915281206001851460e11b4260a01b178317905582840190839083907fddf252ad1be2c89b69c2b068fc378daa952ba7f163c4a11628f55a4df523b3ef8180a4600183015b8181146120fc57808360007fddf252ad1be2c89b69c2b068fc378daa952ba7f163c4a11628f55a4df523b3ef600080a46001016120c4565b508160000361211d57604051622e076360e81b815260040160405180910390fd5b60005550505050565b6001600160e01b031981168114610f0057600080fd5b60006020828403121561214e57600080fd5b8135610cdb81612126565b60005b8381101561217457818101518382015260200161215c565b838111156112f25750506000910152565b6000815180845261219d816020860160208601612159565b601f01601f19169290920160200192915050565b602081526000610cdb6020830184612185565b6000602082840312156121d657600080fd5b5035919050565b6001600160a01b0381168114610f0057600080fd5b6000806040838503121561220557600080fd5b8235612210816121dd565b946020939093013593505050565b60008060006060848603121561223357600080fd5b833561223e816121dd565b9250602084013561224e816121dd565b929592945050506040919091013590565b60008083601f84011261227157600080fd5b5081356001600160401b0381111561228857600080fd5b6020830191508360208260051b8501011115610d8957600080fd5b6000806000604084860312156122b857600080fd5b83356122c3816121dd565b925060208401356001600160401b038111156122de57600080fd5b6122ea8682870161225f565b9497909650939450505050565b6000806040838503121561230a57600080fd5b50508035926020909101359150565b6000806020838503121561232c57600080fd5b82356001600160401b0381111561234257600080fd5b61234e8582860161225f565b90969095509350505050565b80516001600160a01b031682526020808201516001600160401b03169083015260408082015115159083015260609081015162ffffff16910152565b6020808252825182820181905260009190848201906040850190845b8181101561108b576123c583855161235a565b92840192608092909201916001016123b2565b6000602082840312156123ea57600080fd5b8135610cdb816121dd565b6000806040838503121561240857600080fd5b8235612413816121dd565b915060208301356001600160601b038116811461242f57600080fd5b809150509250929050565b6020808252825182820181905260009190848201906040850190845b8181101561108b57835183529284019291840191600101612456565b60008060006060848603121561248757600080fd5b8335612492816121dd565b95602085013595506040909401359392505050565b803580151581146124b757600080fd5b919050565b600080604083850312156124cf57600080fd5b82356124da816121dd565b91506124e8602084016124a7565b90509250929050565b634e487b7160e01b600052604160045260246000fd5b604051601f8201601f191681016001600160401b038111828210171561252f5761252f6124f1565b604052919050565b60006001600160401b03821115612550576125506124f1565b50601f01601f191660200190565b6000806000806080858703121561257457600080fd5b843561257f816121dd565b9350602085013561258f816121dd565b92506040850135915060608501356001600160401b038111156125b157600080fd5b8501601f810187136125c257600080fd5b80356125d56125d082612537565b612507565b8181528860208385010111156125ea57600080fd5b8160208401602083013760006020838301015280935050505092959194509250565b60006020828403121561261e57600080fd5b610cdb826124a7565b6080810161094c828461235a565b6000806040838503121561264857600080fd5b8235612653816121dd565b9150602083013561242f816121dd565b60008060006040848603121561267857600080fd5b8335925060208401356001600160401b038111156122de57600080fd5b600181811c908216806126a957607f821691505b6020821081036126c957634e487b7160e01b600052602260045260246000fd5b50919050565b634e487b7160e01b600052601160045260246000fd5b60008160001904831182151516156126ff576126ff6126cf565b500290565b60008261272157634e487b7160e01b600052601260045260246000fd5b500490565b634e487b7160e01b600052603260045260246000fd5b60408152600061274f6040830185612185565b90508260208301529392505050565b60006020828403121561277057600080fd5b81516001600160401b0381111561278657600080fd5b8201601f8101841361279757600080fd5b80516127a56125d082612537565b8181528560208385010111156127ba57600080fd5b6127cb826020830160208601612159565b95945050505050565b600082198211156127e7576127e76126cf565b500190565b6000828210156127fe576127fe6126cf565b500390565b6001600160a01b038581168252841660208201526040810183905260806060820181905260009061283690830184612185565b9695505050505050565b60006020828403121561285257600080fd5b8151610cdb81612126565b60006001820161286f5761286f6126cf565b506001019056feb08889abce443443404b2caf69aa3ccfb9ebfdf1ad2a634d06e11e24c1067938a264697066735822122050c8fd232f52335c37e2bc16c30c4b5ec1c3c7fd6d97a4060236f2bb184110fe64736f6c634300080f0033",
  "linkReferences": {},
  "deployedLinkReferences": {}
}